S0140000554152545F546573744170702E73726563B4
S11300000C942A000C943C000C943C000C943C008E
S11300100C943C000C943C000C943C000C943C006C
S11300200C943C000C943C000C947A000C943C001E
S11300300C943C000C943C000C943C000C943C004C
S11300400C943C000C943C000C943C000C943C003C
S11300500C943C0011241FBECFE5D8E0DEBFCDBF19
S113006020E0A0E6B0E001C01D92A736B207E1F798
S11300700E943E000C9433010C940000CF93DF9354
S1130080CDB7DEB7DA950FB6F894DEBF0FBECDBF9D
S11300900E94C4000E945800CE0101960E941001E3
S11300A0CE0101960E94FD008DE00E94EC00F4CF89
S11300B083B78F7B83BF83B7886083BF8FB7806824
S11300C08FBF89B7826089BF03B606FC0BC003B635
S11300D003FE0AC00FB607FE09C009B601FC08C03A
S11300E081E4089581E4089581E4089581E4089504
S11300F080E008951F920F920FB60F9211242F9350
S11301003F934F935F936F937F938F939F93AF939B
S1130110BF93EF93FF9380916300909164000196E5
S11301209093640080936300209163003091640095
S1130130809165009091660028173907A1F4809199
S1130140600090916100892B71F01092640010920C
S1130150630089B78D7F89BF10926200E0916000CF
S1130160F09161000995FF91EF91BF91AF919F913B
S11301708F917F916F915F914F913F912F910F904C
S11301800FBE0F901F9018958AB180618AB9549B55
S113019002C080E001C081E89AB198609AB9539B8B
S11301A081E890B5906890BD579B81E890B59F7B9E
S11301B090BD569981E890B590BD90B5977F90BD5C
S11301C090B5966090BD90B59F7790BD579981E8A2
S11301D010BC93E399B908955D9BFECF8CB98CB1A3
S11301E082E80895009739F05F9BFECF2CB1FC01A3
S11301F0208380E0089583E808951F93CF93DF93CD
S1130200EC0110E005C00E94EC00811114E8219675
S113021088818111F8CF812FDF91CF911F910895AB
S11302200F931F93CF93DF938C010E94F2008111EF
S113023002C0D0E001C0D5E8C0E008C0CF5FC8016B
S11302408C0F911D0E94F2008111D5E8F801EC0F8A
S1130250F11D80818D3091F710828D2FDF91CF9128
S10D02601F910F910895F894FFCF49
S9030000FC
